{
  "abi": [
    {
      "inputs": [],
      "name": "InvalidId",
      "type": "error"
    },
    {
      "inputs": [],
      "name": "InvalidProof",
      "type": "error"
    },
    {
      "inputs": [],
      "name": "InvalidRoot",
      "type": "error"
    },
    {
      "inputs": [],
      "name": "Unauthorized",
      "type": "error"
    },
    {
      "anonymous": false,
      "inputs": [
        {
          "indexed": true,
          "internalType": "uint256",
          "name": "groupId",
          "type": "uint256"
        },
        {
          "indexed": false,
          "internalType": "uint8",
          "name": "depth",
          "type": "uint8"
        },
        {
          "indexed": false,
          "internalType": "uint256",
          "name": "zeroValue",
          "type": "uint256"
        }
      ],
      "name": "GroupCreated",
      "type": "event"
    },
    {
      "anonymous": false,
      "inputs": [
        {
          "indexed": true,
          "internalType": "uint256",
          "name": "groupId",
          "type": "uint256"
        },
        {
          "indexed": false,
          "internalType": "uint256",
          "name": "identityCommitment",
          "type": "uint256"
        },
        {
          "indexed": false,
          "internalType": "uint256",
          "name": "root",
          "type": "uint256"
        }
      ],
      "name": "MemberAdded",
      "type": "event"
    },
    {
      "anonymous": false,
      "inputs": [
        {
          "indexed": true,
          "internalType": "uint256",
          "name": "groupId",
          "type": "uint256"
        },
        {
          "indexed": false,
          "internalType": "uint256",
          "name": "identityCommitment",
          "type": "uint256"
        },
        {
          "indexed": false,
          "internalType": "uint256",
          "name": "root",
          "type": "uint256"
        }
      ],
      "name": "MemberRemoved",
      "type": "event"
    },
    {
      "anonymous": false,
      "inputs": [
        {
          "indexed": false,
          "internalType": "uint256",
          "name": "nullifierHash",
          "type": "uint256"
        }
      ],
      "name": "NullifierHashAdded",
      "type": "event"
    },
    {
      "inputs": [
        {
          "internalType": "uint256",
          "name": "groupId",
          "type": "uint256"
        },
        {
          "internalType": "uint256",
          "name": "identityCommitment",
          "type": "uint256"
        }
      ],
      "name": "addMember",
      "outputs": [],
      "stateMutability": "nonpayable",
      "type": "function"
    },
    {
      "inputs": [
        {
          "internalType": "uint256",
          "name": "groupId",
          "type": "uint256"
        },
        {
          "internalType": "uint8",
          "name": "depth",
          "type": "uint8"
        },
        {
          "internalType": "uint256",
          "name": "zeroValue",
          "type": "uint256"
        }
      ],
      "name": "createGroup",
      "outputs": [],
      "stateMutability": "nonpayable",
      "type": "function"
    },
    {
      "inputs": [
        {
          "internalType": "uint256",
          "name": "groupId",
          "type": "uint256"
        }
      ],
      "name": "getDepth",
      "outputs": [
        {
          "internalType": "uint8",
          "name": "",
          "type": "uint8"
        }
      ],
      "stateMutability": "view",
      "type": "function"
    },
    {
      "inputs": [
        {
          "internalType": "uint256",
          "name": "groupId",
          "type": "uint256"
        }
      ],
      "name": "getNumberOfLeaves",
      "outputs": [
        {
          "internalType": "uint256",
          "name": "",
          "type": "uint256"
        }
      ],
      "stateMutability": "view",
      "type": "function"
    },
    {
      "inputs": [
        {
          "internalType": "uint256",
          "name": "groupId",
          "type": "uint256"
        }
      ],
      "name": "getRoot",
      "outputs": [
        {
          "internalType": "uint256",
          "name": "",
          "type": "uint256"
        }
      ],
      "stateMutability": "view",
      "type": "function"
    },
    {
      "inputs": [],
      "name": "manager",
      "outputs": [
        {
          "internalType": "address",
          "name": "",
          "type": "address"
        }
      ],
      "stateMutability": "view",
      "type": "function"
    },
    {
      "inputs": [
        {
          "internalType": "uint256",
          "name": "groupId",
          "type": "uint256"
        },
        {
          "internalType": "uint256",
          "name": "identityCommitment",
          "type": "uint256"
        },
        {
          "internalType": "uint256[]",
          "name": "proofSiblings",
          "type": "uint256[]"
        },
        {
          "internalType": "uint8[]",
          "name": "proofPathIndices",
          "type": "uint8[]"
        }
      ],
      "name": "removeMember",
      "outputs": [],
      "stateMutability": "nonpayable",
      "type": "function"
    },
    {
      "inputs": [
        {
          "internalType": "address",
          "name": "newManager",
          "type": "address"
        }
      ],
      "name": "transferAccess",
      "outputs": [],
      "stateMutability": "nonpayable",
      "type": "function"
    },
    {
      "inputs": [
        {
          "internalType": "uint256",
          "name": "root",
          "type": "uint256"
        },
        {
          "internalType": "uint256",
          "name": "groupId",
          "type": "uint256"
        },
        {
          "internalType": "uint256",
          "name": "signalHash",
          "type": "uint256"
        },
        {
          "internalType": "uint256",
          "name": "nullifierHash",
          "type": "uint256"
        },
        {
          "internalType": "uint256",
          "name": "externalNullifierHash",
          "type": "uint256"
        },
        {
          "internalType": "uint256[8]",
          "name": "proof",
          "type": "uint256[8]"
        }
      ],
      "name": "verifyProof",
      "outputs": [],
      "stateMutability": "view",
      "type": "function"
    },
    {
      "inputs": [
        {
          "internalType": "uint256[2]",
          "name": "a",
          "type": "uint256[2]"
        },
        {
          "internalType": "uint256[2][2]",
          "name": "b",
          "type": "uint256[2][2]"
        },
        {
          "internalType": "uint256[2]",
          "name": "c",
          "type": "uint256[2]"
        },
        {
          "internalType": "uint256[4]",
          "name": "input",
          "type": "uint256[4]"
        }
      ],
      "name": "verifyProof",
      "outputs": [],
      "stateMutability": "view",
      "type": "function"
    }
  ],
  "bytecode": {
    "object": "0x6080604052600280546001600160a01b0319163317905534801561002257600080fd5b50611bd6806100326000396000f3fe608060405234801561001057600080fd5b506004361061009e5760003560e01c80635fe8c13b116100665780635fe8c13b1461012157806366e759ee1461013457806375e618c9146101475780639b24b3b01461017c578063b9c78c2b146101ae57600080fd5b80631783efc3146100a35780633bc778e3146100b85780633daedcd0146100cb57806343989f85146100de578063481c6a75146100f1575b600080fd5b6100b66100b1366004611712565b6101d1565b005b6100b66100c6366004611734565b610344565b6100b66100d93660046117a5565b610468565b6100b66100ec366004611826565b6104c3565b600254610104906001600160a01b031681565b6040516001600160a01b0390911681526020015b60405180910390f35b6100b661012f36600461195b565b610634565b6100b6610142366004611a39565b6109af565b61016a610155366004611a69565b60009081526001602052604090205460ff1690565b60405160ff9091168152602001610118565b6101a061018a366004611a69565b6000908152600160208190526040909120015490565b604051908152602001610118565b6101a06101bc366004611a69565b60009081526001602052604090206002015490565b6002546001600160a01b031633146101fb576040516282b42960e81b815260040160405180910390fd5b60008281526001602052604081205460ff16900361022c57604051631bf4348160e31b815260040160405180910390fd5b600082815260016020526040908190209051630b4381fd60e11b815260048101919091526024810182905273__$ad2c48709c95fa8c8f67e511c53cb89e84$__9063168703fa9060440160006040518083038186803b15801561028e57600080fd5b505af41580156102a2573d6000803e3d6000fd5b5050506000838152600160208190526040822001549091506040805180820182526001600160801b038087168252428116602080840191825260008681526003909152849020925190518216600160801b0291161790555190915083907f03fd27265b7dd1f55558bedc22a58fa3b10afb1be776e614bd5a7ba7b9499406906103379085908590918252602082015260400190565b60405180910390a2505050565b6000868152600360209081526040918290208251808401909352546001600160801b03808216808552600160801b9092041691830191909152861415806103a5575062093a8081602001516001600160801b0316426103a39190611a98565b115b156103c35760405163504570e360e01b815260040160405180910390fd5b60408051608080820183528982526020808301889052828401899052606080840188905284518086018652873581528783013581840152855180850187528887013581880190815289840135938201939093529182528551808701875293880135845260a08801358484015281830193909352845180860190955260c08701358552929361045e939181018760076020020135905284610634565b5050505050505050565b6002546001600160a01b03163314610492576040516282b42960e81b815260040160405180910390fd5b826000036104b357604051631bf4348160e31b815260040160405180910390fd5b6104be8383836109fb565b505050565b6002546001600160a01b031633146104ed576040516282b42960e81b815260040160405180910390fd5b60008681526001602052604081205460ff16900361051e57604051631bf4348160e31b815260040160405180910390fd5b600086815260016020526040908190209051630629596f60e01b815273__$ad2c48709c95fa8c8f67e511c53cb89e84$__91630629596f9161056d919089908990899089908990600401611ac5565b60006040518083038186803b15801561058557600080fd5b505af4158015610599573d6000803e3d6000fd5b505050600087815260016020818152604080842083018054825180840184526001600160801b03808f16825242811682870190815283895260038752858920925190518216600160801b029116179055948c9052928252915482518a81529182015291925088917fe270325ded177064d7bda473e6519ef40a291058c41286f71a6e4872f1e9ab5c910160405180910390a250505050505050565b61063c6115d8565b6040805180820182528651815260208088015181830152908352815160808101835286515181840190815287518301516060830152815282518084018452878301805151825251830151818401528183015283820152815180830183528551815285820151918101919091529082015260006106b6610bb9565b6080810151519091506106cb60046001611b50565b146106e9576040516309bde33960e01b815260040160405180910390fd5b6000816080015160008151811061070257610702611aaf565b602002602001015190506107548161074f846080015160018151811061072a5761072a611aaf565b60200260200101518760006004811061074557610745611aaf565b60200201516110b9565b611162565b905061078f8161074f846080015160028151811061077457610774611aaf565b60200260200101518760016004811061074557610745611aaf565b90506107ca8161074f84608001516003815181106107af576107af611aaf565b60200260200101518760026004811061074557610745611aaf565b90506108058161074f84608001516004815181106107ea576107ea611aaf565b60200260200101518760036004811061074557610745611aaf565b60408051600480825260a0820190925291925060009190816020015b604080518082019091526000808252602082015281526020019060019003908161082157505060408051600480825260a0820190925291925060009190602082015b61086b611629565b815260200190600190039081610863575050855190915061088b906111ce565b8260008151811061089e5761089e611aaf565b60200260200101819052508460200151816000815181106108c1576108c1611aaf565b60200260200101819052508360000151826001815181106108e4576108e4611aaf565b602002602001018190525083602001518160018151811061090757610907611aaf565b6020026020010181905250828260028151811061092657610926611aaf565b602002602001018190525083604001518160028151811061094957610949611aaf565b602002602001018190525084604001518260038151811061096c5761096c611aaf565b602002602001018190525083606001518160038151811061098f5761098f611aaf565b60200260200101819052506109a482826112d0565b505050505050505050565b6002546001600160a01b031633146109d9576040516282b42960e81b815260040160405180910390fd5b600280546001600160a01b0319166001600160a01b0392909216919091179055565b7f30644e72e131a029b85045b68181585d2833e84879b9709143e1f593f00000018310610a8e5760405162461bcd60e51b815260206004820152603660248201527f53656d6170686f726547726f7570733a2067726f7570206964206d757374206260448201527519480f0814d3905492d7d4d0d053105497d19251531160521b60648201526084015b60405180910390fd5b60008381526001602052604090205460ff1615610afb5760405162461bcd60e51b815260206004820152602560248201527f53656d6170686f726547726f7570733a2067726f757020616c72656164792065604482015264786973747360d81b6064820152608401610a85565b60008381526001602052604090819020905163b4bdd11760e01b8152600481019190915260ff831660248201526044810182905273__$ad2c48709c95fa8c8f67e511c53cb89e84$__9063b4bdd1179060640160006040518083038186803b158015610b6657600080fd5b505af4158015610b7a573d6000803e3d6000fd5b50506040805160ff86168152602081018590528693507fc3082aa494e9088c2c9f0fb62a0b6bd46e6699acb94cfba35be29b95a93f68c8925001610337565b610bc1611649565b6040805180820182527f2d4d9aa7e302d9df41749d5507949d05dbea33fbb16c643b22f599a2be6df2e281527f14bedd503c37ceb061d8ec60209fe345ce89830a19230301f076caff004d19266020808301919091529083528151608080820184527f0967032fcbf776d1afc985f88877f182d38480a653f2decaa9794cbc3bf3060c8285019081527f0e187847ad4c798374d0d6732bf501847dd68bc0e071241e0213bc7fc13db7ab606080850191909152908352845180860186527f304cfbd1e08a704a99f5e847d93f8c3caafddec46b7a0d379da69a4d112346a781527f1739c1b1a457a8c7313123d24d2f9192f896b7c63eea05a9d57f06547ad0cec8818601528385015285840192909252835180820185527f198e9393920d483a7260bfb731fb5d25f1aa493335a9e71297e485b7aef312c28186019081527f1800deef121f1e76426a00665e5c4479674322d4f75edadd46debd5cd992f6ed828501528152845180860186527f090689d0585ff075ec9e99ad690c3395bc4b313370b38ef355acdadcd122975b81527f12c85ea5db8c6deb4aab71808dcb408fe3d1e7690c43d37b4ce6cc0166fa7daa818601528185015285850152835190810184527f1bdb443ce61ebcf93daed4215a57e1cec90ca64973023e31197a112e8cee72f68185019081527f117e26c4235f42625b3404f2973059814ff260dba7176d7aae910f493a8e1fb5828401528152835180850185527f196e247a12f580e36894f256f0c122393489b4c213b3e913250feee806ca45ff81527f2fedff4e4bbcbf9f1c56e28a060d50eef5f54e2aab897f6b465acd2ed005ae918185015281840152908401528151600580825260c08201909352919082015b6040805180820190915260008082526020820152815260200190600190039081610e3c57505060808201908152604080518082019091527f2c097b31a897227a6f64c9fc31d9a8fc421b0d8b8207f92532b464e431e61db881527f0fcf6d89d77d5123a43dfb23efb9c929c28c148ca82c794057864b8e66903c54602082015290518051600090610ecf57610ecf611aaf565b602002602001018190525060405180604001604052807f0186dae5999acfe2cda6fa7a157ae726afda7c6f57b00ea0aa6c2c23bf83838881526020017f2f078608f710c45b60d23716c58e106d8c7a1c6db28119defffc413e074f87168152508160800151600181518110610f4657610f46611aaf565b602002602001018190525060405180604001604052807f2464c1784bda2cbfb51e5ab87cf7eb2764ad81f7038152bdbbb07d404b49aa3781526020017f0638b273e4ee33e03e42ca6c7de1ea7043dbdcaa48661864de644d91c6b4821f8152508160800151600281518110610fbd57610fbd611aaf565b602002602001018190525060405180604001604052807f098ce8b5289ef791db34b68b9e0043ab7bf25306d83a9f0ce74396b8a69c57bb81526020017f1ec6f7a81748f3d2c2b87610d747ca72045ac1530e226f00710630d41aad7e26815250816080015160038151811061103457611034611aaf565b602002602001018190525060405180604001604052807f07dbf682cc528d3ff763fa576d05db50e023921728119ef66f880b6adae01cbe81526020017f0d287dcd9318207576eaa871e7b3308f613d9df7865059cdbc9f66fdef342dc681525081608001516004815181106110ab576110ab611aaf565b602002602001018190525090565b60408051808201909152600080825260208201527f30644e72e131a029b85045b68181585d2833e84879b9709143e1f593f0000001821061110d576040516309bde33960e01b815260040160405180910390fd5b61111561169a565b835181526020808501519082015260408101839052600060608360808460076107d05a03fa90508061115a576040516309bde33960e01b815260040160405180910390fd5b505092915050565b604080518082019091526000808252602082015261117e6116b8565b8351815260208085015181830152835160408301528301516060808301919091526000908360c08460066107d05a03fa90508061115a576040516309bde33960e01b815260040160405180910390fd5b604080518082019091526000808252602082015281511580156111f357506020820151155b15611211575050604080518082019091526000808252602082015290565b81517f30644e72e131a029b85045b68181585d97816a916871ca8d3c208c16d87cfd4711158061126557507f30644e72e131a029b85045b68181585d97816a916871ca8d3c208c16d87cfd47826020015110155b15611283576040516309bde33960e01b815260040160405180910390fd5b60405180604001604052808360000151815260200183602001517f30644e72e131a029b85045b68181585d97816a916871ca8d3c208c16d87cfd476112c89190611a98565b905292915050565b80518251146112f2576040516309bde33960e01b815260040160405180910390fd5b81516000611301826006611b68565b905060008167ffffffffffffffff81111561131e5761131e6118a9565b604051908082528060200260200182016040528015611347578160200160208202803683370190505b50905060005b838110156115825785818151811061136757611367611aaf565b602002602001015160000151828260066113819190611b68565b61138c906000611b50565b8151811061139c5761139c611aaf565b6020026020010181815250508581815181106113ba576113ba611aaf565b602002602001015160200151828260066113d49190611b68565b6113df906001611b50565b815181106113ef576113ef611aaf565b60200260200101818152505084818151811061140d5761140d611aaf565b6020908102919091010151515182611426836006611b68565b611431906002611b50565b8151811061144157611441611aaf565b60200260200101818152505084818151811061145f5761145f611aaf565b6020908102919091018101515101518261147a836006611b68565b611485906003611b50565b8151811061149557611495611aaf565b6020026020010181815250508481815181106114b3576114b3611aaf565b6020026020010151602001516000600281106114d1576114d1611aaf565b6020020151826114e2836006611b68565b6114ed906004611b50565b815181106114fd576114fd611aaf565b60200260200101818152505084818151811061151b5761151b611aaf565b60200260200101516020015160016002811061153957611539611aaf565b60200201518261154a836006611b68565b611555906005611b50565b8151811061156557611565611aaf565b60209081029190910101528061157a81611b87565b91505061134d565b5061158b6116d6565b6000602082602086026020860160086107d05a03fa90508015806115b157508151600114155b156115cf576040516309bde33960e01b815260040160405180910390fd5b50505050505050565b6040805160a081019091526000606082018181526080830191909152815260208101611602611629565b8152602001611624604051806040016040528060008152602001600081525090565b905290565b604051806040016040528061163c6116f4565b81526020016116246116f4565b6040805160e08101909152600060a0820181815260c0830191909152815260208101611673611629565b8152602001611680611629565b815260200161168d611629565b8152602001606081525090565b60405180606001604052806003906020820280368337509192915050565b60405180608001604052806004906020820280368337509192915050565b60405180602001604052806001906020820280368337509192915050565b60405180604001604052806002906020820280368337509192915050565b6000806040838503121561172557600080fd5b50508035926020909101359150565b6000806000806000806101a080888a03121561174f57600080fd5b873596506020880135955060408801359450606088013593506080880135925088818901111561177e57600080fd5b5060a0870190509295509295509295565b803560ff811681146117a057600080fd5b919050565b6000806000606084860312156117ba57600080fd5b833592506117ca6020850161178f565b9150604084013590509250925092565b60008083601f8401126117ec57600080fd5b50813567ffffffffffffffff81111561180457600080fd5b6020830191508360208260051b850101111561181f57600080fd5b9250929050565b6000806000806000806080878903121561183f57600080fd5b8635955060208701359450604087013567ffffffffffffffff8082111561186557600080fd5b6118718a838b016117da565b9096509450606089013591508082111561188a57600080fd5b5061189789828a016117da565b979a9699509497509295939492505050565b634e487b7160e01b600052604160045260246000fd5b6040805190810167ffffffffffffffff811182821017156118e2576118e26118a9565b60405290565b6040516080810167ffffffffffffffff811182821017156118e2576118e26118a9565b600082601f83011261191c57600080fd5b6119246118bf565b80604084018581111561193657600080fd5b845b81811015611950578035845260209384019301611938565b509095945050505050565b60008060008061018080868803121561197357600080fd5b61197d878761190b565b9450604087605f88011261199057600080fd5b6119986118bf565b8060c089018a8111156119aa57600080fd5b838a015b818110156119cf576119c08c8261190b565b845260209093019284016119ae565b508197506119dd8b8261190b565b9650505050508661011f8701126119f357600080fd5b6119fb6118e8565b908601908088831115611a0d57600080fd5b61010088015b83811015611a2b578035835260209283019201611a13565b509598949750929550505050565b600060208284031215611a4b57600080fd5b81356001600160a01b0381168114611a6257600080fd5b9392505050565b600060208284031215611a7b57600080fd5b5035919050565b634e487b7160e01b600052601160045260246000fd5b600082821015611aaa57611aaa611a82565b500390565b634e487b7160e01b600052603260045260246000fd5b8681526000602087818401526080604084015285608084015260018060fb1b03861115611af157600080fd5b8560051b808860a0860137830183810360a090810160608601528101859052859060009060c0015b86821015611b415760ff611b2c8461178f565b16815291830191600191909101908301611b19565b9b9a5050505050505050505050565b60008219821115611b6357611b63611a82565b500190565b6000816000190483118215151615611b8257611b82611a82565b500290565b600060018201611b9957611b99611a82565b506001019056fea2646970667358221220f1110f2da8bbab118f24bd494971738ad1d58a759d272861f85de2332f29d95c64736f6c634300080d0033",
    "linkReferences": {
      "/Users/psippl/scm/worldcoin/world-id-example-airdrop/lib/zk-kit/packages/incremental-merkle-tree.sol/contracts/IncrementalBinaryTree.sol": {
        "IncrementalBinaryTree": [
          {
            "start": 651,
            "length": 20
          },
          {
            "start": 1390,
            "length": 20
          },
          {
            "start": 2915,
            "length": 20
          }
        ]
      }
    }
  }
}