{
  "abi": [
    {
      "inputs": [],
      "stateMutability": "nonpayable",
      "type": "constructor"
    },
    {
      "inputs": [
        {
          "internalType": "uint256",
          "name": "groupId",
          "type": "uint256"
        }
      ],
      "name": "DuplicateGroup",
      "type": "error"
    },
    {
      "inputs": [],
      "name": "FailedToVerifyProof",
      "type": "error"
    },
    {
      "inputs": [],
      "name": "GroupDisabled",
      "type": "error"
    },
    {
      "inputs": [],
      "name": "ImplementationNotInitialized",
      "type": "error"
    },
    {
      "inputs": [
        {
          "internalType": "uint256",
          "name": "groupId",
          "type": "uint256"
        }
      ],
      "name": "NoSuchGroup",
      "type": "error"
    },
    {
      "inputs": [
        {
          "internalType": "uint256",
          "name": "groupId",
          "type": "uint256"
        }
      ],
      "name": "NonSequentialGroup",
      "type": "error"
    },
    {
      "anonymous": false,
      "inputs": [
        {
          "indexed": false,
          "internalType": "address",
          "name": "previousAdmin",
          "type": "address"
        },
        {
          "indexed": false,
          "internalType": "address",
          "name": "newAdmin",
          "type": "address"
        }
      ],
      "name": "AdminChanged",
      "type": "event"
    },
    {
      "anonymous": false,
      "inputs": [
        {
          "indexed": true,
          "internalType": "address",
          "name": "beacon",
          "type": "address"
        }
      ],
      "name": "BeaconUpgraded",
      "type": "event"
    },
    {
      "anonymous": false,
      "inputs": [
        {
          "indexed": false,
          "internalType": "uint8",
          "name": "version",
          "type": "uint8"
        }
      ],
      "name": "Initialized",
      "type": "event"
    },
    {
      "anonymous": false,
      "inputs": [
        {
          "indexed": true,
          "internalType": "address",
          "name": "previousOwner",
          "type": "address"
        },
        {
          "indexed": true,
          "internalType": "address",
          "name": "newOwner",
          "type": "address"
        }
      ],
      "name": "OwnershipTransferred",
      "type": "event"
    },
    {
      "anonymous": false,
      "inputs": [
        {
          "indexed": true,
          "internalType": "address",
          "name": "implementation",
          "type": "address"
        }
      ],
      "name": "Upgraded",
      "type": "event"
    },
    {
      "inputs": [
        {
          "internalType": "uint256",
          "name": "groupId",
          "type": "uint256"
        },
        {
          "internalType": "address",
          "name": "groupIdentityManager",
          "type": "address"
        }
      ],
      "name": "addGroup",
      "outputs": [],
      "stateMutability": "nonpayable",
      "type": "function"
    },
    {
      "inputs": [
        {
          "internalType": "uint256",
          "name": "groupId",
          "type": "uint256"
        }
      ],
      "name": "disableGroup",
      "outputs": [
        {
          "internalType": "address",
          "name": "oldTarget",
          "type": "address"
        }
      ],
      "stateMutability": "nonpayable",
      "type": "function"
    },
    {
      "inputs": [],
      "name": "groupCount",
      "outputs": [
        {
          "internalType": "uint256",
          "name": "count",
          "type": "uint256"
        }
      ],
      "stateMutability": "view",
      "type": "function"
    },
    {
      "inputs": [
        {
          "internalType": "address",
          "name": "initialGroupIdentityManager",
          "type": "address"
        }
      ],
      "name": "initialize",
      "outputs": [],
      "stateMutability": "nonpayable",
      "type": "function"
    },
    {
      "inputs": [],
      "name": "owner",
      "outputs": [
        {
          "internalType": "address",
          "name": "",
          "type": "address"
        }
      ],
      "stateMutability": "view",
      "type": "function"
    },
    {
      "inputs": [],
      "name": "proxiableUUID",
      "outputs": [
        {
          "internalType": "bytes32",
          "name": "",
          "type": "bytes32"
        }
      ],
      "stateMutability": "view",
      "type": "function"
    },
    {
      "inputs": [],
      "name": "renounceOwnership",
      "outputs": [],
      "stateMutability": "nonpayable",
      "type": "function"
    },
    {
      "inputs": [
        {
          "internalType": "uint256",
          "name": "groupNumber",
          "type": "uint256"
        }
      ],
      "name": "routeFor",
      "outputs": [
        {
          "internalType": "address",
          "name": "target",
          "type": "address"
        }
      ],
      "stateMutability": "view",
      "type": "function"
    },
    {
      "inputs": [
        {
          "internalType": "address",
          "name": "newOwner",
          "type": "address"
        }
      ],
      "name": "transferOwnership",
      "outputs": [],
      "stateMutability": "nonpayable",
      "type": "function"
    },
    {
      "inputs": [
        {
          "internalType": "uint256",
          "name": "groupId",
          "type": "uint256"
        },
        {
          "internalType": "address",
          "name": "newTargetAddress",
          "type": "address"
        }
      ],
      "name": "updateGroup",
      "outputs": [
        {
          "internalType": "address",
          "name": "oldTarget",
          "type": "address"
        }
      ],
      "stateMutability": "nonpayable",
      "type": "function"
    },
    {
      "inputs": [
        {
          "internalType": "address",
          "name": "newImplementation",
          "type": "address"
        }
      ],
      "name": "upgradeTo",
      "outputs": [],
      "stateMutability": "nonpayable",
      "type": "function"
    },
    {
      "inputs": [
        {
          "internalType": "address",
          "name": "newImplementation",
          "type": "address"
        },
        {
          "internalType": "bytes",
          "name": "data",
          "type": "bytes"
        }
      ],
      "name": "upgradeToAndCall",
      "outputs": [],
      "stateMutability": "payable",
      "type": "function"
    },
    {
      "inputs": [
        {
          "internalType": "uint256",
          "name": "groupId",
          "type": "uint256"
        },
        {
          "internalType": "uint256",
          "name": "root",
          "type": "uint256"
        },
        {
          "internalType": "uint256",
          "name": "signalHash",
          "type": "uint256"
        },
        {
          "internalType": "uint256",
          "name": "nullifierHash",
          "type": "uint256"
        },
        {
          "internalType": "uint256",
          "name": "externalNullifierHash",
          "type": "uint256"
        },
        {
          "internalType": "uint256[8]",
          "name": "proof",
          "type": "uint256[8]"
        }
      ],
      "name": "verifyProof",
      "outputs": [],
      "stateMutability": "nonpayable",
      "type": "function"
    }
  ],
  "bytecode": {
    "object": "0x60a06040523060805234801561001457600080fd5b5061001d610022565b6100e2565b600054610100900460ff161561008e5760405162461bcd60e51b815260206004820152602760248201527f496e697469616c697a61626c653a20636f6e747261637420697320696e697469604482015266616c697a696e6760c81b606482015260840160405180910390fd5b60005460ff90811610156100e0576000805460ff191660ff9081179091556040519081527f7f26b83ff96e1f2b6a682f133852f6798a09c465da95921460cefb38474024989060200160405180910390a15b565b608051611a986101896000396000818161026e015281816102b70152818161033f0152818161037f015281816104e0015281816105200152818161059c01528181610662015281816106a2015281816107cf0152818161080f01528181610899015281816108d9015281816109c501528181610a0501528181610d0f01528181610d4f01528181610e0701528181610e47015281816110cb015261110b0152611a986000f3fe6080604052600436106100c25760003560e01c80638da5cb5b1161007f578063bbe0d98611610059578063bbe0d986146101e4578063c4d66de814610204578063f2fde38b14610224578063f73b9f221461024457600080fd5b80638da5cb5b146101915780638f23b326146101af578063a95a7806146101c457600080fd5b80633659cfe6146100c75780633bc778e3146100e95780634f1ef2861461010957806352d1902d1461011c578063715018a61461014457806384ac1e6214610159575b600080fd5b3480156100d357600080fd5b506100e76100e2366004611690565b610264565b005b3480156100f557600080fd5b506100e76101043660046116ab565b610335565b6100e761011736600461171c565b6104d6565b34801561012857600080fd5b5061013161058f565b6040519081526020015b60405180910390f35b34801561015057600080fd5b506100e7610642565b34801561016557600080fd5b506101796101743660046117de565b610656565b6040516001600160a01b03909116815260200161013b565b34801561019d57600080fd5b506033546001600160a01b0316610179565b3480156101bb57600080fd5b506101316107c3565b3480156101d057600080fd5b506100e76101df3660046117de565b61088f565b3480156101f057600080fd5b506101796101ff36600461180a565b6109b9565b34801561021057600080fd5b506100e761021f366004611690565b610b29565b34801561023057600080fd5b506100e761023f366004611690565b610c8d565b34801561025057600080fd5b5061017961025f36600461180a565b610d03565b6001600160a01b037f00000000000000000000000000000000000000000000000000000000000000001630036102b55760405162461bcd60e51b81526004016102ac90611823565b60405180910390fd5b7f00000000000000000000000000000000000000000000000000000000000000006001600160a01b03166102e7610de1565b6001600160a01b03161461030d5760405162461bcd60e51b81526004016102ac9061186f565b61031681610dfd565b6040805160008082526020820190925261033291839190610ea5565b50565b6001600160a01b037f000000000000000000000000000000000000000000000000000000000000000016300361037d5760405162461bcd60e51b81526004016102ac90611823565b7f00000000000000000000000000000000000000000000000000000000000000006001600160a01b03166103af610de1565b6001600160a01b0316146103d55760405162461bcd60e51b81526004016102ac9061186f565b60c95460ff166103f857604051630103019560e11b815260040160405180910390fd5b6000610403876109b9565b9050600086868686866040516024016104209594939291906118bb565b60408051601f198184030181529181526020820180516001600160e01b03166301aa650960e51b179052519091506000906001600160a01b03841690610467908490611910565b6000604051808303816000865af19150503d80600081146104a4576040519150601f19603f3d011682016040523d82523d6000602084013e6104a9565b606091505b50509050806104cb5760405163cdfe9bfd60e01b815260040160405180910390fd5b505050505050505050565b6001600160a01b037f000000000000000000000000000000000000000000000000000000000000000016300361051e5760405162461bcd60e51b81526004016102ac90611823565b7f00000000000000000000000000000000000000000000000000000000000000006001600160a01b0316610550610de1565b6001600160a01b0316146105765760405162461bcd60e51b81526004016102ac9061186f565b61057f82610dfd565b61058b82826001610ea5565b5050565b6000306001600160a01b037f0000000000000000000000000000000000000000000000000000000000000000161461062f5760405162461bcd60e51b815260206004820152603860248201527f555550535570677261646561626c653a206d757374206e6f742062652063616c60448201527f6c6564207468726f7567682064656c656761746563616c6c000000000000000060648201526084016102ac565b50600080516020611a1c83398151915290565b61064a611015565b610654600061106f565b565b60006001600160a01b037f00000000000000000000000000000000000000000000000000000000000000001630036106a05760405162461bcd60e51b81526004016102ac90611823565b7f00000000000000000000000000000000000000000000000000000000000000006001600160a01b03166106d2610de1565b6001600160a01b0316146106f85760405162461bcd60e51b81526004016102ac9061186f565b60c95460ff1661071b57604051630103019560e11b815260040160405180910390fd5b610723611015565b61072b6107c3565b831061074d576040516339456f4960e11b8152600481018490526024016102ac565b60fb83815481106107605761076061192c565b60009182526020909120015460fb80546001600160a01b03909216925083918590811061078f5761078f61192c565b9060005260206000200160006101000a8154816001600160a01b0302191690836001600160a01b0316021790555092915050565b60006001600160a01b037f000000000000000000000000000000000000000000000000000000000000000016300361080d5760405162461bcd60e51b81526004016102ac90611823565b7f00000000000000000000000000000000000000000000000000000000000000006001600160a01b031661083f610de1565b6001600160a01b0316146108655760405162461bcd60e51b81526004016102ac9061186f565b60c95460ff1661088857604051630103019560e11b815260040160405180910390fd5b5060fc5490565b6001600160a01b037f00000000000000000000000000000000000000000000000000000000000000001630036108d75760405162461bcd60e51b81526004016102ac90611823565b7f00000000000000000000000000000000000000000000000000000000000000006001600160a01b0316610909610de1565b6001600160a01b03161461092f5760405162461bcd60e51b81526004016102ac9061186f565b60c95460ff1661095257604051630103019560e11b815260040160405180910390fd5b61095a611015565b6109626107c3565b82101561098557604051635618b91560e11b8152600481018390526024016102ac565b61098d6107c3565b82146109af57604051630f562c4960e41b8152600481018390526024016102ac565b61058b82826110c1565b60006001600160a01b037f0000000000000000000000000000000000000000000000000000000000000000163003610a035760405162461bcd60e51b81526004016102ac90611823565b7f00000000000000000000000000000000000000000000000000000000000000006001600160a01b0316610a35610de1565b6001600160a01b031614610a5b5760405162461bcd60e51b81526004016102ac9061186f565b60c95460ff16610a7e57604051630103019560e11b815260040160405180910390fd5b610a866107c3565b8210610aa8576040516339456f4960e11b8152600481018390526024016102ac565b60006001600160a01b031660fb8381548110610ac657610ac661192c565b6000918252602090912001546001600160a01b031603610af9576040516314781e4360e21b815260040160405180910390fd5b60fb8281548110610b0c57610b0c61192c565b6000918252602090912001546001600160a01b031690505b919050565b600054600190610100900460ff16158015610b4b575060005460ff8083169116105b610bae5760405162461bcd60e51b815260206004820152602e60248201527f496e697469616c697a61626c653a20636f6e747261637420697320616c72656160448201526d191e481a5b9a5d1a585b1a5e995960921b60648201526084016102ac565b6000805461ffff191660ff831617610100179055610bca6112c7565b60408051600a808252610160820190925290602082016101408036833750508151610bfc9260fb9250602001906115ff565b508160fb600081548110610c1257610c1261192c565b600091825260209091200180546001600160a01b0319166001600160a01b0392909216919091179055600160fc55610c486112fe565b6000805461ff001916905560405160ff821681527f7f26b83ff96e1f2b6a682f133852f6798a09c465da95921460cefb38474024989060200160405180910390a15050565b610c95611015565b6001600160a01b038116610cfa5760405162461bcd60e51b815260206004820152602660248201527f4f776e61626c653a206e6577206f776e657220697320746865207a65726f206160448201526564647265737360d01b60648201526084016102ac565b6103328161106f565b60006001600160a01b037f0000000000000000000000000000000000000000000000000000000000000000163003610d4d5760405162461bcd60e51b81526004016102ac90611823565b7f00000000000000000000000000000000000000000000000000000000000000006001600160a01b0316610d7f610de1565b6001600160a01b031614610da55760405162461bcd60e51b81526004016102ac9061186f565b60c95460ff16610dc857604051630103019560e11b815260040160405180910390fd5b610dd0611015565b610ddb826000610656565b92915050565b600080516020611a1c833981519152546001600160a01b031690565b6001600160a01b037f0000000000000000000000000000000000000000000000000000000000000000163003610e455760405162461bcd60e51b81526004016102ac90611823565b7f00000000000000000000000000000000000000000000000000000000000000006001600160a01b0316610e77610de1565b6001600160a01b031614610e9d5760405162461bcd60e51b81526004016102ac9061186f565b610332611015565b7f4910fdfa16fed3260ed0e7147f7cc6da11a60208b5b9406d12a635614ffd91435460ff1615610edd57610ed883611334565b505050565b826001600160a01b03166352d1902d6040518163ffffffff1660e01b8152600401602060405180830381865afa925050508015610f37575060408051601f3d908101601f19168201909252610f3491810190611942565b60015b610f9a5760405162461bcd60e51b815260206004820152602e60248201527f45524331393637557067726164653a206e657720696d706c656d656e7461746960448201526d6f6e206973206e6f74205555505360901b60648201526084016102ac565b600080516020611a1c83398151915281146110095760405162461bcd60e51b815260206004820152602960248201527f45524331393637557067726164653a20756e737570706f727465642070726f786044820152681a58589b195555525160ba1b60648201526084016102ac565b50610ed88383836113d0565b6033546001600160a01b031633146106545760405162461bcd60e51b815260206004820181905260248201527f4f776e61626c653a2063616c6c6572206973206e6f7420746865206f776e657260448201526064016102ac565b603380546001600160a01b038381166001600160a01b0319831681179093556040519116919082907f8be0079c531659141344cd1fd0a4f28419497f9722a3daafe3b4186f6b6457e090600090a35050565b6001600160a01b037f00000000000000000000000000000000000000000000000000000000000000001630036111095760405162461bcd60e51b81526004016102ac90611823565b7f00000000000000000000000000000000000000000000000000000000000000006001600160a01b031661113b610de1565b6001600160a01b0316146111615760405162461bcd60e51b81526004016102ac9061186f565b60c95460ff1661118457604051630103019560e11b815260040160405180910390fd5b60fb5482106112735760fb54600061119d600583611971565b67ffffffffffffffff8111156111b5576111b5611706565b6040519080825280602002602001820160405280156111de578160200160208202803683370190505b50905060005b828110156112575760fb81815481106111ff576111ff61192c565b9060005260206000200160009054906101000a90046001600160a01b031682828151811061122f5761122f61192c565b6001600160a01b039092166020928302919091019091015261125081611984565b90506111e4565b50805161126b9060fb9060208401906115ff565b505050611184565b8060fb83815481106112875761128761192c565b6000918252602082200180546001600160a01b0319166001600160a01b03939093169290921790915560fc8054916112be83611984565b91905055505050565b600054610100900460ff166112ee5760405162461bcd60e51b81526004016102ac9061199d565b6112f66113fb565b61065461142a565b600054610100900460ff166113255760405162461bcd60e51b81526004016102ac9061199d565b60c9805460ff19166001179055565b6001600160a01b0381163b6113a15760405162461bcd60e51b815260206004820152602d60248201527f455243313936373a206e657720696d706c656d656e746174696f6e206973206e60448201526c1bdd08184818dbdb9d1c9858dd609a1b60648201526084016102ac565b600080516020611a1c83398151915280546001600160a01b0319166001600160a01b0392909216919091179055565b6113d983611451565b6000825111806113e65750805b15610ed8576113f58383611491565b50505050565b600054610100900460ff166114225760405162461bcd60e51b81526004016102ac9061199d565b610654611585565b600054610100900460ff166106545760405162461bcd60e51b81526004016102ac9061199d565b61145a81611334565b6040516001600160a01b038216907fbc7cd75a20ee27fd9adebab32041f755214dbc6bffa90cc0225b39da2e5c2d3b90600090a250565b60606001600160a01b0383163b6114f95760405162461bcd60e51b815260206004820152602660248201527f416464726573733a2064656c65676174652063616c6c20746f206e6f6e2d636f6044820152651b9d1c9858dd60d21b60648201526084016102ac565b600080846001600160a01b0316846040516115149190611910565b600060405180830381855af49150503d806000811461154f576040519150601f19603f3d011682016040523d82523d6000602084013e611554565b606091505b509150915061157c8282604051806060016040528060278152602001611a3c602791396115b5565b95945050505050565b600054610100900460ff166115ac5760405162461bcd60e51b81526004016102ac9061199d565b6106543361106f565b606083156115c45750816115ce565b6115ce83836115d5565b9392505050565b8151156115e55781518083602001fd5b8060405162461bcd60e51b81526004016102ac91906119e8565b828054828255906000526020600020908101928215611654579160200282015b8281111561165457825182546001600160a01b0319166001600160a01b0390911617825560209092019160019091019061161f565b50611660929150611664565b5090565b5b808211156116605760008155600101611665565b80356001600160a01b0381168114610b2457600080fd5b6000602082840312156116a257600080fd5b6115ce82611679565b6000806000806000806101a080888a0312156116c657600080fd5b87359650602088013595506040880135945060608801359350608088013592508881890111156116f557600080fd5b5060a0870190509295509295509295565b634e487b7160e01b600052604160045260246000fd5b6000806040838503121561172f57600080fd5b61173883611679565b9150602083013567ffffffffffffffff8082111561175557600080fd5b818501915085601f83011261176957600080fd5b81358181111561177b5761177b611706565b604051601f8201601f19908116603f011681019083821181831017156117a3576117a3611706565b816040528281528860208487010111156117bc57600080fd5b8260208601602083013760006020848301015280955050505050509250929050565b600080604083850312156117f157600080fd5b8235915061180160208401611679565b90509250929050565b60006020828403121561181c57600080fd5b5035919050565b6020808252602c908201527f46756e6374696f6e206d7573742062652063616c6c6564207468726f7567682060408201526b19195b1959d85d1958d85b1b60a21b606082015260800190565b6020808252602c908201527f46756e6374696f6e206d7573742062652063616c6c6564207468726f7567682060408201526b6163746976652070726f787960a01b606082015260800190565b6000610180820190508682528560208301528460408301528360608301526101008360808401379695505050505050565b60005b838110156119075781810151838201526020016118ef565b50506000910152565b600082516119228184602087016118ec565b9190910192915050565b634e487b7160e01b600052603260045260246000fd5b60006020828403121561195457600080fd5b5051919050565b634e487b7160e01b600052601160045260246000fd5b80820180821115610ddb57610ddb61195b565b6000600182016119965761199661195b565b5060010190565b6020808252602b908201527f496e697469616c697a61626c653a20636f6e7472616374206973206e6f74206960408201526a6e697469616c697a696e6760a81b606082015260800190565b6020815260008251806020840152611a078160408501602087016118ec565b601f01601f1916919091016040019291505056fe360894a13ba1a3210667c828492db98dca3e2076cc3735a920a3ca505d382bbc416464726573733a206c6f772d6c6576656c2064656c65676174652063616c6c206661696c6564a26469706673582212201367754cd0349f3ab60857c1fcf42a0089db647216890a6173e25db3f637668964736f6c63430008130033",
    "linkReferences": {}
  },
  "methodIdentifiers": {
    "addGroup(uint256,address)": "a95a7806",
    "disableGroup(uint256)": "f73b9f22",
    "groupCount()": "8f23b326",
    "initialize(address)": "c4d66de8",
    "owner()": "8da5cb5b",
    "proxiableUUID()": "52d1902d",
    "renounceOwnership()": "715018a6",
    "routeFor(uint256)": "bbe0d986",
    "transferOwnership(address)": "f2fde38b",
    "updateGroup(uint256,address)": "84ac1e62",
    "upgradeTo(address)": "3659cfe6",
    "upgradeToAndCall(address,bytes)": "4f1ef286",
    "verifyProof(uint256,uint256,uint256,uint256,uint256,uint256[8])": "3bc778e3"
  },
  "id": 30
}